:100000000C9441020C9488020C94A3020C94880274
:100010000C9488020C9488020C9488020C94880238
:100020000C9488020C9488020C9488020C94880228
:100030000C9488020C9488020C94DA160C948802B2
:100040000C9488020C9488020C9488020C94880208
:100050000C9488020C9488020C9488020C948802F8
:100060000C9488020C948802B30CB30CE50CE50CDC
:10007000320D500DA80EA80E920D270E380E380E18
:10008000980EA80EA80EA10E3D0F3D0F4F0F4F0F5B
:10009000460F4F0F4F0F4F0F3D0F3D0F4B0F4F0FA1
:1000A0004F0F4B0F2B0014001A000800150017000B
:1000B0001C0018000C00120013002A002900040084
:1000C0001600070009000A000B000D000E000F00CB
:1000D00033003400E1001D001B000600190005007C
:1000E000110010003600370038002800E000E6005C
:1000F000E200E30004512C002C0005515000510097
:1001000052004F002B0014001A00090013000A00CF
:100110000D000F0018001C0033002A002900040005
:1001200015001600170007000B00110008000C0056
:1001300012003400E1001D001B000600190005003C
:100140000E0010003600370038002800E000E600FE
:10015000E200E30004512C002C0005515000510036
:1001600052004F002B0034003600370013001C00F3
:1001700009000A00060015000F002A0029000400EB
:100180001200080018000C0007000B0017001100F7
:1001900016003800E100330014000D000E001B00B3
:1001A000050010001A0019001D002800E000E600FC
:1001B000E200E30004512C002C00055150005100D6
:1001C00052004F0035021E021F02200221022202AD
:1001D000230224022502260227022A004C003A00AC
:1001E0003B003C003D003E003F002D022E022F024E
:1001F000300231020100400041004200430044004F
:100200004500320264024A004D0001000100010075
:10021000010001000100010001000100AB00AA0083
:10022000A900AE0035001E001F00200021002200A2
:10023000230024002500260027002A004C003A0055
:100240003B003C003D003E003F002D002E002F00F3
:1002500030003100010040004100420043004400F2
:100260004500320064004B004E0001000100010017
:10027000010001000100010001000100AB00AA0023
:10028000A900AE001E001E001E001E001E001E0063
:100290001E001E001E001E001E001E000000140096
:1002A0001A000800150017001C0018000C001200AE
:1002B00013002F00000004001600070009000A00C8
:1002C0000B000D000E000F00330034001050000032
:1002D00000000600190000000000110010000000DE
:1002E00000000000005C00000000000000000000B2
:1002F000000000000000000000004C0001000100B0
:10030000295C1D5C1E5C135C0A5C005201520252A7
:100310001550010001002B5C2A5C265C275C2C5CDC
:100320002D5C00000000010001000100010001003F
:1003300001000100010001000100010001000100B5
:100340000100010009023B00020100A03209040083
:100350000001030101000921010100012240000701
:1003600005810308000109040100010300000009E0
:100370002101010001228100070583030800011209
:1003800001100100000008C016DB27020001020373
:10039000010403300000000C0350006C0061006990
:1003A0000064000000160364006D003900720065EF
:1003B0000063006F00720064007300000004030912
:1003C0000405010902A10185020901A1000509191D
:1003D0000129051500250195057501810295017515
:1003E0000381030501093009311581257F950275C7
:1003F00008810609381581257F9501750881060554
:100400000C0A38021581257F950175088106C0C048
:1004100005010980A101850319012AB700150126EC
:10042000B700950175108100C0050C0901A1018577
:100430000419012AA002150126A002950175108158
:1004400000C005010906A101050719E029E715000B
:10045000250195087501810295017508810305073D
:10046000190029FF150026FF009506750881000573
:1004700008190129059505750191029501750391EA
:1004800003C011241FBECFEFD8E0DEBFCDBF04B63E
:1004900003FE27C08091060390910703A0910803F3
:1004A000B09109038730904BA740B04BD1F4109224
:1004B000060310920703109208031092090314BE5A
:1004C00084B7877F84BF0FB6F894A89580916000A9
:1004D000886180936000109260000FBEE0E0F8E356
:1004E000099511E0A0E0B1E0ECE6FAE302C0059066
:1004F0000D92A838B107D9F723E0A8E8B1E001C010
:100500001D92A630B207E1F70E94EB190C94341D3E
:100510000C940000A82FB92F80E090E041E050EA51
:10052000609530E009C02D9182279795879510F04E
:1005300084279527305EC8F36F5FA8F30895EADF3C
:100540008D939D930895CF93CFB7CF93DF93C395AA
:100550004B9BE9F74B9B10C04B9B0EC04B9B0CC0B9
:100560004B9B0AC04B9B08C04B9B06C0C091DD0251
:10057000C395C093DD028EC06F93C091DC02DD276E
:10058000CC51DD4F2F9365E54B9B03C02F916F91AD
:10059000E1CF0F931F934F9320E040E15F9309B1A8
:1005A0000C7003FB27F93F9350E03BE039C01C700F
:1005B00040642F77012F5F5F1EC0406819B11C7027
:1005C0002F7752501FC0406409B12F770C70D1F1C2
:1005D0005F5F00C023C0406219B12F771C7091F19A
:1005E0005F5F00C025C00C701027515012F45D5F92
:1005F0000000115027952C3F19B1C8F61C70012737
:10060000015027952C3FC8F64227499309B10C7039
:1006100010274F73115027952C3FA8F64695469505
:1006200019B11C7079F00127015027952C3F98F6DD
:100630006B5A60F3315009B1B0F600C012E01CBB38
:1006400000271CC03B503195C31BD04012E01CBB9F
:100650000881033C21F10B3411F12091DA02198158
:10066000110F1213EDCF4A81441F093669F10D3283
:1006700011F0013E29F74F7009F0042F0093E202B8
:100680003F915F914F911F910F912F916F91CCB33B
:10069000C1FD5DCFDF91CF91CFBFCF911895209154
:1006A000E202222369F31091E0021123E9F53430CC
:1006B000EAF13093E0022093DB021091DC023BE090
:1006C000311B3093DC0232C00091E002013064F54E
:1006D0000AE54F7049F43091150134FD28C00093AC
:1006E0001501C3ECD2E027C0433049F03091CE026F
:1006F00034FD1DC00093CE02CFECD2E01CC030917F
:10070000FA0234FD14C00093FA02CBEFD2E013C01A
:10071000052710E000C000000BB91AC0052710E043
:10072000221F1DC010E021C04AE502C032ED432F58
:10073000C4E1D0E032E01AB11C605B9A0BB11AB987
:100740005CE020E865E320FF05270BB927951795A6
:100750001C3FF0F66695B8F7B1F720FF05270BB9F7
:10076000279517951C3FD0F62795179517FF052756
:1007700000001C3F0BB9B0F629913A9519F7037F99
:100780001091E102110FC651D0400BB911F0109336
:10079000DA0212E01CBB08601AB1137F402F437FBE
:1007A00054E05A95F1F70BB91AB94BB969CF0C94CB
:1007B000B1060C94AF060C94E1030C94370481E06D
:1007C000089581E0089508950C94E3031F93CF9357
:1007D000DF9300D000D01F92CDB7DEB749835A8394
:1007E0006B8330919E0189819A81311114C06623F7
:1007F00059F0222349F00E947614182F682F89811E
:100800009A810E941F1403C00E944A14182F698104
:100810007A81812F04C00E94761469817A810F90B9
:100820000F900F900F900F90DF91CF911F910C942C
:100830009604FC01262F408151816281738184815D
:100840000C94E603CF93DF93EC0160E00E9419045F
:10085000BE01DF91CF910C94E4030E94A815811191
:1008600002C00E9448160C94D7030C94D903089533
:1008700081E008950C943804CF93C82F0E94DD03C3
:100880008C2F0E943A04CF91089508950E942B0F57
:100890000E9445042FEF84E39CE02150804090406B
:1008A000E1F700C000000C9400170F931F93CF9343
:1008B000DF93EC0161E00E9419048C01BE010E94EB
:1008C000DB03882349F1BE01C8010E946308882325
:1008D00019F1BE01C8010E94A4088823E9F0BE01F5
:1008E000C8010E94CF098823B9F08A81882369F062
:1008F00001158CE5180731F00E3D1C4531F40E94BE
:1009000048160AC00E94460407C0CE01DF91CF916D
:100910001F910F910C94DF0380E0DF91CF911F9125
:100920000F91089580E090E00895089520E3829F5C
:10093000C0011124FC012CE0729FE00DF11D112477
:10094000E60FF11DEE0FFF1FEC55FF4F85919491BF
:100950000895880F991FFC01EC5BFC4F85919491E1
:100960000895CF93DF930E9496040E94C905EC017D
:100970008115904508F041C0C11580E4D80708F002
:10098000D1C0C83ED10510F5C03ED10508F0FDC06C
:10099000C83AD10578F4C53AD10508F0A2C0C130F3
:1009A000D10509F4F2C008F4EEC0C430D10508F056
:1009B000ECC0E9C0CF3BD10508F49BC0C03CD105D9
:1009C00008F4E1C0CE01805C91099EC0C11590E29F
:1009D000D90758F4C11521E0D20708F0D6C0C03FAE
:1009E000D10508F4D0C0D065D0C0C11580E3D807C8
:1009F00008F08EC0CE019F7087C0C11595E5D9075C
:100A000008F043C0C11524E5D20708F0A2C0C11503
:100A100082E5D80708F5C11591E5D90708F085C02A
:100A2000CE0174E0969587957A95E1F783709C2FB7
:100A3000937021E030E002C0220F331F9A95E2F755
:100A40003C68382BCF70C695C69580E2C89FE00100
:100A50001124C22BD32B99C09E01237033278C2FD6
:100A600086958695C115D34508F064C0C1E0D0E0F5
:100A700002C0CC0FDD1F2A95E2F720E2829FC00161
:100A80001124C82BD92BDC6880C0C11529E5D207F9
:100A9000A0F4C11588E5D80708F060C0C11596E537
:100AA000D90708F070C08C2F0E945D068F71C82F87
:100AB000D0E0DC2FCC27D06268C0C1152AE5D20770
:100AC00008F451C0CE0190568115904208F05BC0E9
:100AD0008D2F8F710E945D06DD27D0628F71D82B1C
:100AE00054C0C55AD0E0CC5BDE4FC881D0E0D064A2
:100AF0004CC0C85AD0E0CC0FDD1FCA5EDE4F099053
:100B0000D881C02DD46441C00E94A904EC013DC02D
:100B1000CE019927D3FF03C0EC01D86C36C0EC019D
:100B2000D06C33C0DF70D06A30C0DC2FCC27C16FEF
:100B3000D06A2BC0C1E0D0E002C0CC0FDD1F2A95E7
:100B4000E2F720E2829FC0011124C82BD92BDA687A
:100B50001CC0DC2FCC27C46FD06A17C0DC2FCC2779
:100B6000C06FD06A12C08C2F8F700E945D0694E017
:100B7000D695C7959A95E1F7CF70D0E0DC2FCC27BA
:100B8000D069C82B02C0C0E0D0E0CE01DF91CF9188
:100B900008958238910569F1B0F48133910509F423
:100BA0006DC048F48932910509F463C08A32910519
:100BB00009F469C008958533910509F455C0893356
:100BC0009105B9F00895833E910569F138F4803EAE
:100BD0009105B1F0823E910509F10895863E910597
:100BE000A9F1873E9105B9F1843E910509F064C0F1
:100BF00023C02091C10220FD4FC021FD4DC00895AA
:100C00008091C10280FD44C08091C20280FF44C037
:100C10008091C10284FD42C083EE4DC08091C1022B
:100C200082FF38C0F5CF8091C10282FD33C0809130
:100C3000C20280FD31C0ECCF8091C20281FF32C080
:100C40008091C10284FD2AC087EE35C08091C10227
:100C500083FF26C0F5CF8091C10283FD21C0809122
:100C6000C20281FD1FC0ECCF8091C10285FD1CC076
:100C70001DC08091C10285FD19C016C08091C102BE
:100C800086FD16C017C08091C10286FD13C010C03A
:100C900089E311C082EE0FC080EE0DC080E00BC072
:100CA00086EE09C084EE07C089E205C085E303C073
:100CB0008AE201C081E390E008959091C10292FF21
:100CC0000DC0282F2871283019F4877F846006C052
:100CD000282F2471243011F48B7F886093FF0DC07E
:100CE000282F2871283119F4877E846106C0282FA7
:100CF0002471243111F48B7E88612091C20220FF7F
:100D00000DC0382F3871383019F4877F816006C0E4
:100D1000382F3171313011F48E7F886021FF0DC082
:100D2000282F2871283119F4877E816106C0282F69
:100D30002171213111F48E7E886194FD877E0895A2
:100D4000E82FF0E0EE0FFF1FED54FD4F8081918101
:100D50000895089580EA8A95F1F7089508950C940E
:100D6000AE060C94AE06CF93DF93A3E5B1E047E562
:100D700051E061E070E08D91E82FE295EF70F0E0D6
:100D800021A18F70EB0102C0CC0FDD1F8A95E2F725
:100D9000CE019C2F9095922391A392A1892B82A39F
:100DA0004A175B0741F7A7E4B1E041E050E08D91BD
:100DB000E82FE295EF70F0E021A18F70BA0102C038
:100DC000660F771F8A95E2F7CB01962F90959223B5
:100DD00091A392A1892B82A371E0A335B70739F7BC
:100DE0001092AC021092AB021092B4021092B302B5
:100DF0001092AE021092AD021092B6021092B5029D
:100E00001092B0021092AF021092B8021092B70284
:100E10001092B2021092B1021092BA021092B9026C
:100E200084E00E94B407DF91CF910C942D042F929F
:100E30003F924F925F926F927F928F929F92AF926A
:100E4000BF92CF92DF92EF92FF920F931F93CF93B7
:100E5000DF9383E5C82E81E0D82E0BEA12E093EBF6
:100E6000492E92E0592E312C88248394912C5801DC
:100E7000D8016D907C9011971D921C92F601819182
:100E80006F01C82FC295CF70D0E099A18F70740107
:100E900001C0EE0C8A95EAF7892F8E2989A38AA1D1
:100EA0002E2C209482218AA30E94AA06E7E4F1E076
:100EB00020E030E06191A62FA295AF70B0E090964F
:100EC0008C91D8014D915C9190E06F7002C0959526
:100ED00087956A95E2F780FD08C0C401022E02C022
:100EE000880F991F0A94E2F702C080E090E0482B37
:100EF000592BD8014D935C932F5F3F4F2C30310518
:100F0000C9F689A1282229A28AA1E82AEAA20E5FAD
:100F10001F4F81E0F501208131812615370509F445
:100F200080E0382A4016510609F0A1CF232D44E075
:100F300063EB72E08BEA92E00E94B5070E943504F1
:100F4000832DDF91CF911F910F91FF90EF90DF9054
:100F5000CF90BF90AF909F908F907F906F905F9059
:100F60004F903F902F9008950895FF920F931F93F5
:100F7000CF93DF93F82E092F162FD72FC42F2223BC
:100F800049F081E080938A010E94BF169093890105
:100F90008093880180918A018823D9F0809188010B
:100FA000909189010E94CB16069798F0EF2DF02FB3
:100FB000A12FBD2F80E090E04C2F50E084179507C3
:100FC00034F4219131912D933D930196F7CF1092F6
:100FD0008A01DF91CF911F910F91FF9008950F9398
:100FE0001F93CF93DF93C62FD42F122FFC01828142
:100FF0008823C9F060938D010E94BF1690938C01E5
:1010000080938B0180E28C0F883008F057C0C77046
:1010100081E001C0880FCA95EAF7DF91CF911F9157
:101020000F910C94730C80918D01681330C08091E6
:101030008B0190918C010E94CB16883C910538F56C
:1010400000E20D0FCD17B9F080E28C0F883040F42C
:10105000C77081E001C0880FCA95EAF70E947A0C38
:10106000083028F581E09D2F977001C0880F9A9570
:10107000EAF70E94730C812F0E94600C0830F0F494
:10108000D77081E001C0880FDA95EAF70AC080E2E4
:101090008C0F883098F4C77081E001C0880FCA9522
:1010A000EAF7DF91CF911F910F910C947A0C812F69
:1010B000DF91CF911F910F910C94600CDF91CF9134
:1010C0001F910F9108959C01CB01233F4CE53407FC
:1010D000F9F078F4283DFCE53F07B9F0293D4CE5EF
:1010E000340711F1273D3C4531F526E241EE61EE32
:1010F0001EC0253FFCE53F0799F070F0263F3C45B8
:10110000D1F427E245EE66EE12C027E245EE0EC0AE
:1011100026E241EE60EE0BC027E245EE64EE07C02A
:1011200026E241EE62EE03C028E241E065EE0E9455
:10113000EF0780E00895FC018281882319F0109266
:101140008D01089581E00895CF93DF93EC01FB01B9
:101150008281882309F41FC1C230FCE5DF0708F44F
:101160001BC1C6319CE5D90738F09E012A5F3C457A
:101170002930310508F010C10E94BB159093C202BE
:101180008093C102C031ECE5DE0709F4C3C008F06A
:1011900041C0C8308CE5D80709F49AC0F0F4C430D7
:1011A000ECE5DE0709F487C068F4C2308CE5D807A7
:1011B00009F477C0C330DC4509F0E3C08091C10277
:1011C000826076C0C630ECE5DE0709F46EC008F038
:1011D0007BC08091C10288606BC0CC308CE5D807A1
:1011E00009F485C068F4CA30ECE5DE0709F474C080
:1011F00008F079C00E942B0F8091C102806858C00E
:10120000CE308CE5D80709F476C008F07FC0809115
:10121000C1028BC0CB3FECE5DE0709F44FC018F5E7
:10122000C3318CE5D80709F47DC078F4C131ECE511
:10123000DE0709F473C0C231DC4509F0A2C00E9488
:101240002B0F8091C1028F7733C0C5318CE5D80751
:1012500009F472C008F486C0CA3FDC4509F091C0A9
:101260008091C2023EC0CF3FFCE5DF0709F45FC0BA
:1012700058F4CD3F9CE5D90709F444C008F43FC0B9
:101280008091C20282602DC0C130FDE5DF0709F404
:1012900075C008F45DC0C230DD4509F072C080E061
:1012A0006EC08091C102816003C08091C1028061E3
:1012B0008093C10266C08091C10211C08091C202B8
:1012C00082608093C2025DC08091C1028062F0CFD3
:1012D0008091C1028064ECCF8091C10288608460FB
:1012E000E7CF8160EECF8091C1028E7FE1CF809108
:1012F000C1028D7FDDCF8091C102877FD9CF8091E0
:10130000C20218C08091C2028D7FDBCF8091C102E2
:101310008F7ECECF8091C1028F7DCACF8091C102D6
:101320008F7BC6CF8091C102877F8B7FC1CF809199
:10133000C2028D7F8E7FC5CF8091C10282FB2227A2
:1013400020F991E0922790FB82F990FB83F9B0CFCE
:101350008091C202982F909591708E7F892B90FB7F
:1013600081F9AFCF0E942B0F8091C10287FB22270A
:1013700020F991E0922790FB87F99ACF81E00E94B3
:101380004A168091C1029091C2020E94CC150E941F
:101390002B0F80E001C081E0DF91CF910895CF93C2
:1013A000DF9386319C4541F5EB010E94F714982F9D
:1013B0008A812091000130910101882379F09A7A85
:1013C00081E009F480E080938E01911102C069E20E
:1013D00001C065E3C9010E9491160AC080918E0187
:1013E000811102C069E201C065E3C9010E94931640
:1013F0000E94451580E001C081E0DF91CF91089502
:1014000090939401809393010895E0919301F0915A
:101410009401309721F00190F081E02D099480E053
:101420000895E0919301F0919401309721F00280AA
:10143000F381E02D09940895E0919301F0919401D6
:10144000309721F00480F581E02D099408952091D2
:101450009101309192012817390771F09093920110
:1014600080939101E0919301F0919401309721F0E4
:101470000680F781E02D0994089520918F01309125
:1014800090012817390771F09093900180938F0194
:10149000E0919301F0919401309721F00084F1855F
:1014A000E02D0994089508950C94530A0C94540A5D
:1014B0000C94530A0C94530A0E94580A0C94560A2E
:1014C00081E008950E94B6160E94B3060E94151787
:1014D0000C945A0A7F928F929F92AF92BF92CF92B2
:1014E000DF92EF92FF920F931F93CF93DF93CDB7CD
:1014F000DEB72A970FB6F894DEBF0FBECDBF0E94AD
:1015000017070E94600A811111C08FEF89838A83B7
:101510001B820E94BF168160782F9D838C83498136
:101520005A816B818D810E941A0B4FC046E9A42E0F
:1015300041E0B42E00E010E0702E802F0E94A00643
:101540006C01F501819091905F01882699268114A4
:10155000910431F40F5F1F4F0430110569F7D5CFA7
:1015600080910A0281FD0E94A90680E0EE24E394A6
:10157000F12C94012E213F21232B09F18E837F82B0
:10158000CE20DF2081E0CD2809F480E088870E940A
:10159000BF168160782F9A8789874E815F81688521
:1015A0008A850E941A0B000F111FF801EA56FE4FA0
:1015B00080819181E826F926F182E08206C08F5F62
:1015C000EE0CFF1C8C30A9F6C5CF0E94A7180E9414
:1015D000050A909195018917C9F00E94050A809328
:1015E00095012A960FB6F894DEBF0FBECDBFDF91EE
:1015F000CF911F910F91FF90EF90DF90CF90BF9010
:10160000AF909F908F907F900C943C042A960FB6D9
:10161000F894DEBF0FBECDBFDF91CF911F910F9128
:10162000FF90EF90DF90CF90BF90AF909F908F9002
:101630007F900895CF93DF93CDB7DEB72B970FB68A
:10164000F894DEBF0FBECDBF4F83588769877A8776
:101650008B87DE01119686E0FD0111928A95E9F7EC
:1016600085E0FE01379601900D928A95E1F7498158
:101670005A816B817C818D819E810E94E4112B9621
:101680000FB6F894DEBF0FBECDBFDF91CF910895A6
:10169000FC01808191810E94B8140895CF93882322
:1016A00009F4A4C0C82F8238C1F40E94050A81FD44
:1016B0009DC069E380910001909101010E94911603
:1016C0000E9445152FEF81EE94E02150804090401C
:1016D000E1F700C0000069E319C0833801F50E94FA
:1016E000050A80FD83C063E58091000190910101AE
:1016F0000E9491160E9445152FEF81EE94E0215033
:1017000080409040E1F700C0000063E58091000157
:10171000909101010E949316CF910C944515843845
:10172000C1F40E94050A82FD61C067E48091000156
:10173000909101010E9491160E9445152FEF81EEB4
:1017400094E0215080409040E1F700C0000067E441
:10175000DDCF8CEF8C0F813AD0F46C2F809100019B
:10176000909101010E945B16882349F06C2F8091B3
:101770000001909101010E9493160E9445156C2F63
:1017800080910001909101010E949116C5CF80E2E5
:101790008C0F883048F4C77081E001C0880FCA956B
:1017A000EAF70E94FA14B8CFEBE5EC0FE33040F40F
:1017B000F0E0EB57FE4F808190E0CF910C94270A28
:1017C000E8E5EC0FE73150F4F0E0EE0FFF1FE95AC7
:1017D000FE4F80819181CF910C943D0AC03F30F043
:1017E0008C2F0E94AF17CF910C949C18CF91089525
:1017F000882309F464C0823879F40E94050A81FFC5
:101800005EC069E380910001909101010E949116F0
:101810000E94451569E310C08338B1F40E94050A9F
:1018200080FF4DC063E580910001909101010E940D
:1018300091160E94451563E5809100019091010188
:101840000E9493160C944515843879F40E94050A79
:1018500082FF35C067E480910001909101010E94F0
:1018600091160E94451567E4E7CF9CEF980F913AD7
:1018700010F4682FE1CF90E2980F983050F4877001
:1018800091E001C0990F8A95EAF7892F0E9400150F
:10189000D9CF9BE5980F933020F480E090E00C9432
:1018A000270A98E5980F973120F480E090E00C9497
:1018B0003D0A803F20F00E9417180C949C18089550
:1018C000CF93C82F0E944E0BC93349F42FEF87EEF8
:1018D00093E0215080409040E1F700C000008C2F41
:1018E000CF910C94F80B882321F00E94FA140C94E9
:1018F00045150895882321F00E9400150C94451584
:101900000895CF92DF92EF92FF920F931F93CF93A0
:10191000DF937C01062FC72FFC01158112951F70E4
:10192000D281D1110E9417150E94F014882379F0FA
:10193000DD2369F080E2800F883048F082E00E9469
:101940008F150E94F01491E0D82ED92601C0D12C19
:10195000CC2EC2948FE0C8228C2D90E0FC01EC5C70
:10196000FF4F0C94D81C8C2F807FCF70882311F0F0
:10197000C295C07FDD2399F0CC2309F4C4C180E275
:10198000800F883010F0011104C08C2F0E94FA14CF
:1019900003C08C2F0E940A150E944515B4C1802FE8
:1019A0000E94F80BCC2309F4D3C180E2800F883069
:1019B00010F0011104C08C2F0E94001503C08C2F61
:1019C0000E9410150E944515C3C18C2F807FCF70D7
:1019D000803211F0C295C07F002319F00130C9F0A8
:1019E00022C0DD2371F0112341F0113031F40E9447
:1019F0002A158C2B0E943215ABC10E942A158C2B04
:101A00001DC0112319F0113009F4A2C10E943B1529
:101A100025C0DD2321F0163008F09AC10EC0153024
:101A200008F096C11BC0DD2361F0112331F0F701EE
:101A3000858180FF68C18F7085838C2F0E94730C15
:101A400087C1112359F0093309F06EC1FFEF27EE6A
:101A500083E0F15020408040E1F764C18C2F0E9468
:101A60007A0C76C18C2F86958695837019F081301B
:101A700061F06EC1DD2321F0802F9C2F937002C096
:101A800080E090E00E94270A6BC1DD2321F0802FC7
:101A90009C2F937002C080E090E00E943D0A60C1DC
:101AA000DD23F9F0053F51F0063F71F0043FA9F442
:101AB0008091BB029091BC0281600BC08091BB02FF
:101AC0009091BC02826005C08091BB029091BC02E3
:101AD00084609093BC028093BB02802F0E94AF175A
:101AE0001EC0053F51F0063F71F0043FA9F48091FC
:101AF000BB029091BC028E7F0BC08091BB02909183
:101B0000BC028D7F05C08091BB029091BC028B7F8F
:101B10009093BC028093BB02802F0E9417180E94F2
:101B20009C181EC18C2F837009F045C0D11114C1BF
:101B3000402F429546954770440F440F602F6F70B9
:101B4000862F90E0A0E0B0E0042E04C0880F991F1B
:101B5000AA1FBB1F0A94D2F704FF10C00FE010E0C9
:101B600020E030E004C0000F111F221F331F4A95F0
:101B7000D2F7009510952095309503C000E010E055
:101B80009801C695C695C370BC01CD01602B712B21
:101B9000822B932BC23049F058F4C13019F00E94C7
:101BA0003513DAC00E942313D7C00E944713D4C054
:101BB0000E942113D1C0DD2319F08C2F817001C048
:101BC0008695882309F4C8C0402F429546954770F2
:101BD000440F440F602F6F70862F90E0A0E0B0E0BC
:101BE000042E04C0880F991FAA1FBB1F0A94D2F7A6
:101BF00004FF10C00FE010E020E030E004C0000F50
:101C0000111F221F331F4A95D2F70095109520957A
:101C1000309503C000E010E09801C695C695C370EA
:101C2000BC01CD01602B712B822B932BC23049F06C
:101C300058F4C13019F00E94FA138EC00E94E813C4
:101C40008BC00E940C1488C00E945B1385C0CF70AB
:101C5000DD2339F08C2F0E948113802F0E94730C9A
:101C60007BC0802F0E947A0C8C2F0E94A21374C01C
:101C7000023F01F128F4003F41F0013FA1F03FC0D5
:101C8000033FF9F0043F39F13AC0DD2341F015304C
:101C900008F05EC08C2F8F710E94C71359C0163098
:101CA00008F056C0F7CFDD2339F08C2F8F710E94DA
:101CB00081134EC0DD23C9F38C2F8F710E94A213B4
:101CC00047C0DD2329F08C2F8F710E946C1340C018
:101CD0000E9467133DC0DD2349F0CF718C2F0E9415
:101CE000811363E08C2F0E947A1532C081E00E943C
:101CF0008F15123068F182E00E948F1529C0DD2314
:101D000031F0112391F2802F0E944E0B21C011233C
:101D100099F2093349F49FEFE7EEF3E09150E04088
:101D2000F040E1F700C00000802F0E94F80B10C0C7
:101D30004C2F4F70602FC7010E9492040E94921294
:101D40000FC04C2F4F70602FC7010E94950408C030
:101D500088EF8C0D843020F40E94050A0E943C0418
:101D6000DD20C9F00E94EC1480FD15C0F70112823D
:101D70000E94E6140E948113C7010E94EC0E0E948B
:101D8000E614DF91CF911F910F91FF90EF90DF90BC
:101D9000CF900C94A213DF91CF911F910F91FF90E0
:101DA000EF90DF90CF9008950F931F93CF93DF9321
:101DB000EC01688179818A810E94C3148C010E94A0
:101DC0001E140E940F13B801CE010E94810CDF91F6
:101DD000CF911F910F910895CF93DF93FC019081D4
:101DE000818123813481232B31F08F3F31F481E0D5
:101DF0009F3F19F403C081E001C080E080FD0EC068
:101E0000EF01CF010E945504882341F0CE010E94CA
:101E1000D40ECE01DF91CF910C942204DF91CF91AB
:101E200008950E9417150E9427150E9445150E94CB
:101E3000C5190E949C1880E090E00E94270A80E06B
:101E400090E00C943D0A80910001909101010E9464
:101E500095160C94110F0E9407150C94230FE92F6F
:101E6000E295EF704E2F50E0FA013297EE30F10517
:101E7000B0F4EC5BFF4F0C94D81C803F91F018F449
:101E8000883E68F40EC0843F51F40BC0883E48F091
:101E9000813F29F406C093FB882780F9089580E0EC
:101EA000089581E008950E94B8140E942F0F0895AC
:101EB000CF93DF9300D000D01F92CDB7DEB70F9045
:101EC0000F900F900F900F90DF91CF910895CF93C7
:101ED000DF9300D000D000D0CDB7DEB726960FB686
:101EE000F894DEBF0FBECDBFDF91CF9108951F9351
:101EF000CF93DF93C0919F0116E08091A001C81796
:101F000099F0D0E01C9FF0011D9FF00D1124EF55BA
:101F1000FE4F4081518162817381848195810E944D
:101F2000670F2196C770E9CFDF91CF911F91089578
:101F30004091D1015091D2016091D3017091D401AF
:101F40008091D5019091D6010C94670F0F931F9348
:101F5000CF93DF938091D60182958F7009F05DC099
:101F60008091D301882309F458C080919F0110917A
:101F7000A0016091D1017091D201C091D401D091A2
:101F8000D50191E06F3F09F090E0292F06E081171D
:101F900009F443C0209721F07F3F21F030E003C0D7
:101FA00031E001C0322F90E030FD34C0089FF001D5
:101FB000099FF00D1124DF01AF55BE4F11963C91E2
:101FC0001197371327C03C91361324C012963C91C9
:101FD000129731111FC013964D915C9114974C1BB1
:101FE0005D0B483C5105B0F48091D6018F70806143
:101FF0008093D601EA55FE4F80818F708061808387
:1020000081ED91E00E94EC0EDF91CF911F910F9135
:102010000C94770F01968770BACFDF91CF911F9103
:102020000F9108959F92AF92BF92CF92DF92EF925D
:10203000FF920F931F93CF93DF93CDB7DEB76197D6
:102040000FB6F894DEBF0FBECDBF8C0185E0F8015E
:10205000DE011D9601900D928A95E1F7F80140810D
:102060005181E2809091D1016091D2012091D401FF
:102070003091D5012115310531F06F3F31F481E008
:102080009F3F19F403C081E001C080E0F82FF17098
:102090009F2E80FD46C1F801A380B48081EDC82E3B
:1020A00081E0D82EF090D301F501E21BF30BFF2065
:1020B00009F4DFC08091D601E83CF10508F09BC02F
:1020C000282F207F09F052C0561313C0491311C0A6
:1020D000FE2CE1100EC08F7080618093D6010E94AB
:1020E000980FC6010E94EC0E8091D601F8018583FD
:1020F00058C1AB2831F05F3F31F481E04F3F19F414
:1021000003C081E001C080E080FD03C081E08E2536
:1021100002C080E090E0F82FF170FF2E80FF1CC01D
:1021200080919F012091A00136E0821709F417C128
:1021300090E0389FF001399FF00D1124EF55FE4FCC
:102140006181561306C06081461303C06281E612A6
:1021500003C001968770E9CFFE2CEE2009F421C15F
:102160008091D60181608093D6015AC0561306C073
:10217000491304C0E11002C0F8019FC04D875E877B
:102180008D859E850E94530F882379F1EE2069F199
:102190002091D601822F82958F7090E0029774F083
:1021A0008091D1019091D20198878F831986BB8647
:1021B000AA862C87CE0107960E94EC0E86E0F801D5
:1021C000A1EDB1E001900D928A95E1F70E94A60F72
:1021D0000E94980F0DC0561729F14D875E878D8597
:1021E0009E850E94530F81112CC0C8010E94EC0EE5
:1021F000FF24F394D6C0282F207F69F77A2DB98A5F
:10220000A88A6E2D89890E94580F81ED91E00E9465
:10221000EC0E86E0F60111928A95E9F70E94980F7C
:10222000F12CBFC04913D9CFE110D7CFF801858376
:10223000C8010E94EC0E86E0F60111928A95E9F73A
:10224000B0C0EE2091F22091D601822F82958F703E
:1022500090E002970CF4B2CF8091D1019091D2011D
:102260009A8389831B82BD82AC822E83CE01019624
:10227000A3CFE83CF10508F047C0FE2CEE2009F49E
:10228000B4CF561330C049132EC02091D60120FD83
:1022900021C0822F82958F70482F50E04115510543
:1022A000C9F0F80125834F30510541F08F5F982F19
:1022B0009295907F822F8F70892B8583C8010E9411
:1022C000EC0E86E0F801A1EDB1E001900D928A9547
:1022D000E1F742C086E0F801A1EDB1E001900D9276
:1022E0008A95E1F75EC04D875E878D859E850E9449
:1022F000530F811163CF8091D60181608093D60105
:10230000C8010E94EC0E4DC07A2DB98AA88A6E2DA4
:1023100089890E94580F86E0F60111928A95E9F7A3
:102320001BC0EE2009F461CF4D875E878D859E85A9
:102330000E94530FF82E882309F457CF86E0F80146
:10234000A1EDB1E001900D928A95E1F781ED91E068
:102350000E94480B0E94A60F0E94980F22C04D8732
:102360005E878D859E850E94B814292F22952F7037
:10237000223028F49F7039F0811105C00BC0243041
:1023800028F49F7049F4805E883020F0C8010E94D4
:10239000EC0E9F2CF92C05C0F8019581907F99F7E0
:1023A000F9CF8F2D61960FB6F894DEBF0FBECDBF6B
:1023B000DF91CF911F910F91FF90EF90DF90CF9021
:1023C000BF90AF909F9008951F93CF93DF93CDB7A9
:1023D000DEB72C970FB6F894DEBF0FBECDBF4F838C
:1023E000588769877A878B879C87CE0107960E94DA
:1023F00012108823D1F09F8188852A853B85232B65
:1024000031F08F3F31F481E09F3F19F403C081E048
:1024100001C080E080FD47C04F81588569857A857D
:102420008B859C850E94670F3EC086E0FE01379633
:10243000DE01119601900D928A95E1F7FF81E88502
:102440006A857B856115710531F0EF3F31F481E0DC
:10245000FF3F19F403C081E001C080E080FD23C08C
:102460002091A00130E0C901019687709927409121
:102470009F0150E084179507F1F1F983EA837D838A
:102480006C8396E0929FD001939FB00D1124AF55BD
:10249000BE4FFE01319601900D929A95E1F780931F
:1024A000A0010E94770F16E080919F019091A001FA
:1024B000891771F1189FC00111248F559E4F0E94FA
:1024C0001210882329F1E0919F011E9FF001112431
:1024D000EF55FE4F408151816281738184819581E6
:1024E0000E94670F80919F0190E001968770992765
:1024F00080939F01D9CF0E942B0F1092A0011092C0
:102500009F01E1EDF1E086E0DF011D928A95E9F798
:102510002C960FB6F894DEBF0FBECDBFDF91CF91E2
:102520001F910895EF92FF920F931F93CF93DF9324
:102530008C01892B09F46CC0F12CEE24E394E801A2
:102540002196F8018491843740F4843008F051C01A
:10255000813081F0823019F15BC0853709F444C0C5
:10256000A8F19CE7980F903708F052C08F770E942F
:10257000F80B41C00E5F1F4FFE01849190E2980F4F
:10258000983050F48770FE2D01C0FF0F8A95EAF74E
:102590008F2F0E941A1514C00E944E0B2DC00E5F83
:1025A0001F4FFE01849190E2980F983060F487707D
:1025B000FE2D01C0FF0F8A95EAF78F2F0E9420158C
:1025C0000E94451519C00E94F80B16C00E5F1F4FE0
:1025D000FE01C491CC2381F08FE99FE00197F1F7D0
:1025E00000C00000C150F6CF0E5F1F4FFE01F490F7
:1025F00003C00E944E0B8E018F2D882309F49FCFBC
:10260000EFE9FFE03197F1F700C000008150F5CF0E
:10261000DF91CF911F910F91FF90EF900895089552
:1026200008950C9410130C9411130E9413136093CB
:10263000F9017093FA018093FB019093FC010C94D3
:10264000110F0C9415130F931F930091F901109122
:10265000FA012091FB013091FC01602B712B822B40
:10266000932B1F910F910C9415130F931F930091AF
:10267000F9011091FA012091FB013091FC016023D6
:102680007123822393231F910F910C9415130F93A1
:102690001F930091F9011091FA012091FB013091F3
:1026A000FC0160277127822793271F910F910C94BB
:1026B00015130C9410130E9459136093F501709335
:1026C000F6018093F7019093F8010C94110F60E0EC
:1026D00070E0CB010C945B130F931F9341E050E02B
:1026E00060E070E08A019B0104C0000F111F221FEF
:1026F000331F8A95D2F7C901B8011F910F910C942D
:102700005B130F931F9341E050E060E070E004C062
:10271000440F551F661F771F8A95D2F78091F501E8
:102720009091F601A091F701B091F8018A019B0107
:10273000082B192B2A2B3B2BC901B8011F910F9194
:102740000C945B130F931F9341E050E060E070E046
:1027500004C0440F551F661F771F8A95D2F7409516
:102760005095609570958091F5019091F601A0913A
:10277000F701B091F8018A019B01082319232A234C
:102780003B23C901B8011F910F910C945B130F9368
:102790001F9341E050E060E070E004C0440F551F1B
:1027A000661F771F8A95D2F78091F5019091F60107
:1027B000A091F701B091F8018A019B010827192720
:1027C0002A273B27C901B8011F910F910C945B1375
:1027D0000F931F930091F5011091F6012091F701DD
:1027E0003091F801602B712B822B932B1F910F914D
:1027F0000C945B130F931F930091F5011091F60158
:102800002091F7013091F8016023712382239323F3
:102810001F910F910C945B130F931F930091F5017F
:102820001091F6012091F7013091F801602771278E
:10283000822793271F910F910C945B1308952CE02E
:10284000929F800D1124E82FE695E695E695877016
:1028500051E001C0550F8A95EAF785E0E89FF00145
:102860001124E952FE4F20E030E070E04081CB01BE
:10287000022E02C0969587950A94E2F781708195A1
:1028800084278523842781932F5F3F4F253031058F
:1028900069F708952CE0929F800D1124682F6695AA
:1028A00066956695982F977085E0689FB001112412
:1028B00040E050E080E0FB01E40FF51FE952FE4FDD
:1028C000208130E0092E02C0369527950A94E2F760
:1028D00021703327042E01C0220F0A94EAF7822BBD
:1028E0004F5F5F4F4530510531F70895BF92CF924A
:1028F000DF92EF92FF920F931F93CF93DF938C01A0
:10290000C090F501D090F601E090F701F090F80149
:102910008091F9019091FA01A091FB01B091FC0125
:10292000C82AD92AEA2AFB2ACFE1D0E0D701C6017A
:102930000C2E04C0B695A795979587950A94D2F763
:1029400080FD04C0219790F7B12C07C0BC2EB801C0
:102950008C2F0E94B1040197A9F38B2DDF91CF91A9
:102960001F910F91FF90EF90DF90CF90BF9008954F
:10297000CF93DF93EC010E947614BE010E94B10454
:10298000DF91CF9108951F93CF93DF93EB01909147
:102990009E01992321F0CB010E94B81413C0882313
:1029A00049F0CB010E947614182F682FCE010E94A7
:1029B0001F1404C0CB010E944A14182FBE01812F9E
:1029C0000E94B104DF91CF911F9108958091FD0184
:1029D00085958595859508958091FD018770089569
:1029E0009091FD01977081E009F480E00895809155
:1029F0000902089590910902892B80930902089594
:102A0000809590910902892380930902089510927C
:102A10000902089590910802892B80930802089575
:102A2000809590910802892380930802089510925E
:102A30000802089590910702892B80930702089558
:102A40008095909107028923809307020895109240
:102A5000070208958091FE01089508950C942D15A4
:102A60000C942E159091FE01981721F08093FE0191
:102A70000C94301508958091FE01882329F010925E
:102A8000FE0180E00C9430150895E0910001F09172
:102A90000101809109028083E0910001F091010120
:102AA000908180910802892B8083E0910001F09150
:102AB0000101908180910702892B80838091FE0122
:102AC000882381F0E0910001F09101019081892B30
:102AD000808380910001909101010E944F16811125
:102AE0000E943B1580910001909101010C94110A04
:102AF0000C942D1598E0899F90011124262B20938A
:102B0000FD010E9481138091FD0185958595859534
:102B10000C9478151092FD0180E00C9478152091AA
:102B2000FD01809582238093FD01982F977079F4A1
:102B300030E0482F082E000C550B2417350739F0CC
:102B40008595859585950E94A2130C948A15089504
:102B500080E090E00E94FA1C21E08C3E9E4F09F03C
:102B600020E0822F089582E090E00C94F21C83E034
:102B700090E00C94F21CCF9384E090E00E94F21C51
:102B8000C82F81E290E00E94F21C2C2F30E0A901B6
:102B9000582BCA01CF910895CF93C92F682F84E095
:102BA00090E00E94001D6C2F81E290E0CF910C9488
:102BB000001DAB01BC018FE090E00C94121DAB0135
:102BC000BC0183E190E00C94121D60E070E0CB0149
:102BD0000C94DF1560E070E0CB010E94D9150C94D5
:102BE000E5156CEE7EEF80E090E00E941E1D60E037
:102BF00082E090E00E94001D60E083E090E00E948F
:102C0000001D1092F9011092FA011092FB0110922E
:102C1000FC0160E084E090E00E94001D60E081E241
:102C200090E00E94001D60E085E090E00E94001DA1
:102C300060E086E090E00E94001D6FEF87E090E08A
:102C40000E94001D40E050E0BA0188E090E00E9440
:102C5000121D60E08DE090E00E94001D40E050E019
:102C6000BA0188E190E00E94121D60E087E190E0E7
:102C70000E94001D40E050E0BA018CE190E00E940B
:102C8000121D60E080E290E00E94001D0C94EA15A5
:102C90000C94F115682F8EE090E00C94001DFC015F
:102CA000329697E080E0915029F021912223D9F3C8
:102CB0008F5FF9CF0895662349F0FC01329608969C
:102CC0002191621729F0E817F907D1F780E00895FC
:102CD00081E008959C01FC0132969FEF80E04191D4
:102CE000461789F09F3F19F4411101C0982F8F5F5B
:102CF0008630A9F79F3F39F0F901E90FF11D97FDE3
:102D0000FA956283089508959C012A5F3F4FFC0164
:102D10004281461301C01282019682179307B9F7C8
:102D200008950C946A160C948416029626E0FC0111
:102D300011922A95E9F7089508950C949C160C9425
:102D40009C16CF930E949F160E9417070E949D1603
:102D5000C0E08C2F0E94A006892B29F4CF5FC430DD
:102D6000C1F780E001C081E0CF91089582E084BD89
:102D700093E095BD9AEF97BD80936E0008952FB7AD
:102D8000F8948091BD029091BE02A091BF02B091D3
:102D9000C0022FBF08959C014FB7F8948091BD02E7
:102DA0009091BE02A091BF02B091C0024FBF821BA2
:102DB000930B089578941F920F920FB60F921124DF
:102DC0008F939F93AF93BF938091BD029091BE026A
:102DD000A091BF02B091C0020196A11DB11D8093C8
:102DE000BD029093BE02A093BF02B093C002BF91F8
:102DF000AF919F918F910F900FBE0F901F901895DC
:102E000098E088E10FB6F894A895809360000FBE13
:102E100090936000A895F894D8E0CEEF28E329932A
:102E200020E0299314BEFFCF08950E94A8158111B8
:102E300002C00E9448160E94B31580930A020E94A5
:102E4000BB159093C2028093C1020E94B715682FF0
:102E500070E080E090E00C9421138091120280FFDA
:102E60000BC06091070185E0689FB0011124759542
:102E70006795759567952BC081FF09C06091070123
:102E800085E0689FB00111247595679520C082FF89
:102E900007C06091070185E0689FB001112417C049
:102EA000909111029923D1F060910601961788F74D
:102EB0002091070185E0289F90011124929FA00195
:102EC000939F500D112470E0CA010E94C41C603809
:102ED000710540F46115710519F406C065E070E0F4
:102EE000862F08958FE7089581E00895809112025A
:102EF00080FF08C06091030170E075956795759536
:102F0000679521C081FF06C06091030170E075954F
:102F1000679519C082FF04C06091030170E010C082
:102F200090911102992399F0609102019617A0F7F0
:102F300080910301899FC001112470E00E94C41C8C
:102F40006038710540F46115710519F406C061E03F
:102F500070E0862F08958FE7089581E00895803FFF
:102F600021F40E942D17819504C0813F29F40E940D
:102F70002D17809315020895823F21F40E942D178A
:102F8000819504C0833F29F40E942D178093140279
:102F90000895893F19F40E94761705C08A3F31F4DD
:102FA0000E94761781958093160208958B3F21F435
:102FB0000E947617819504C08C3F29F40E947617F1
:102FC000809317020895843F21F480911302816059
:102FD00017C0853F21F480911302826011C0863FA3
:102FE00021F48091130284600BC0873F21F480910B
:102FF0001302886005C0883F31F48091130280611C
:103000008093130208958D3F21F480911202816014
:103010000BC08E3F21F480911202826005C08F3F69
:1030200029F4809112028460809312020895803FF7
:1030300039F48091150287FF6CC01092150269C0A7
:10304000813F29F4809115021816BCF362C090915B
:103050001402823F29F497FF5CC01092140259C0F9
:10306000833F19F41916CCF354C0893F41F4809181
:10307000160218160CF04DC0109216024AC08A3F74
:1030800029F48091160287FF44C0F6CF8B3F39F4B4
:103090008091170287FF3DC0109217023AC08C3F03
:1030A00029F4809117021816BCF333C0843F21F431
:1030B000809113028E7F17C0853F21F48091130207
:1030C0008D7F11C0863F21F4809113028B7F0BC04E
:1030D000873F21F480911302877F05C0883F31F438
:1030E000809113028F7E8093130213C08D3F21F4D1
:1030F000809112028E7F0BC08E3F21F480911202CC
:103100008D7F05C08F3F29F4809112028B7F8093C1
:1031100012028091140281110EC08091150281115A
:103120000AC080911602811106C080911702811198
:1031300002C010921102089583E192E00E941C0ADD
:103140000E94BF169093100280930F020895CF93B0
:10315000DF9300D000D01F92CDB7DEB785E0E3E16A
:10316000F2E0DE01119601900D928A95E1F78091CF
:103170001402811105C080911502882309F47AC0D8
:1031800080910D0290910E020E94CB16AC0190919D
:103190001102992339F02091080130E024173507F6
:1031A00058F068C0209109018AE0289F90011124FD
:1031B0002417350718F05EC09F3F19F09F5F90936A
:1031C0001102109216021092170280911402181622
:1031D00024F40E942D17809314028091140287FF1B
:1031E00005C00E942D1781958093140280911502CD
:1031F000181624F40E942D17809315028091150251
:1032000087FF05C00E942D1781958093150230918C
:1032100014023323E1F0209115022223C1F045EB83
:103220003403C0011124992319F09093140203C0B0
:1032300081E08093140235EB2303C001112499230C
:1032400019F09093150203C081E0809315020E944B
:103250009C1880910F029091100290930E0280931F
:103260000D0285E0FE013196A3E1B2E001900D92DE
:103270008A95E1F780911602811105C080911702AD
:10328000882309F47AC080910B0290910C020E946D
:10329000CB16AC0190911102992339F020910401D1
:1032A00030E02417350758F068C0209105018AE006
:1032B000289F900111242417350718F05EC09F3F06
:1032C00019F09F5F90931102109214021092150250
:1032D00080911602181624F40E9476178093160225
:1032E0008091160287FF05C00E9476178195809312
:1032F000160280911702181624F40E947617809304
:1033000017028091170287FF05C00E9476178195EA
:1033100080931702309116023323E1F020911702B7
:103320002223C1F045EB3403C0011124992319F085
:103330009093160203C081E08093160235EB2303BD
:10334000C0011124992319F09093170203C081E062
:10335000809317020E949C1880910F029091100296
:1033600090930C0280930B0285E0FE013196A3E15D
:10337000B2E001900D928A95E1F70F900F900F90B7
:103380000F900F90DF91CF910895E3E1F2E085E097
:10339000DF011D928A95E9F7109211021092120234
:1033A0000895F8942AB15B9A822F8C608AB99BB1F8
:1033B0008CE098279BB93FE748E391E031504040CB
:1033C0009040E1F700C000009BB189278BB92AB972
:1033D0005B98789408950E94BF168C0180E88093D2
:1033E0006100109261000E945C0A0E94D71A0E943C
:1033F000000A0E94B11C539A80E0815041F0A895C8
:10340000EFE9FFE03197F1F700C00000F6CF5398E5
:1034100078940E94620AC0E08091DD02882331F036
:103420001092DD020E94BF168C0107C0C8010E94E5
:10343000CB16069780F4C1110EC00E94C11B80916B
:10344000E302882329F08091CE0284FD0E946A0A5B
:103450000E948B1AE0CF0E94A116811102C0C1E028
:10346000DBCF0E94D119FBCF8091A9020895CF93A1
:10347000DF9300D01F92CDB7DEB790911A02981358
:1034800007C020911802309119022617370791F0D2
:1034900080931A02709319026093180289837B83C8
:1034A0006A838091FA0284FF05C063E0CE01019631
:1034B0000E94BD1B0F900F900F90DF91CF91089548
:1034C000BC0184E00C94371ABC0183E00C94371AD9
:1034D000CF93DF9300D000D000D0CDB7DEB7FC0192
:1034E00082E0898395E0DE01129601900D929A9513
:1034F000E1F78091FA0284FF05C066E0CE010196F3
:103500000E94BD1B26960FB6F894DEBF0FBECDBF3E
:10351000DF91CF910895CF93DF93CAE0D0E08091FF
:10352000CE0284FF18C0809126029091270298173E
:10353000E1F028E0829FC001112468E0885D9D4F82
:103540000E94B91B8091260290E001968F70992706
:10355000809326020AC00E94C11B8FE99FE0019759
:10356000F1F700C000002197D1F6DF91CF910895C7
:10357000FC01A0912702B0E09D012F5F3F4F2F700B
:10358000332780912602821771F083E0AA0FBB1FB8
:103590008A95E1F7A85DBD4F98E001900D929A954C
:1035A000E1F7209327020E94C11B0C948B1A8AE03A
:1035B00091E00895FC0180818076803281F58181DF
:1035C000813041F48EE192E09093DF028093DE023D
:1035D00088E00895823041F488EA92E09093DF0217
:1035E0008093DE0281E008958A3021F48381809304
:1035F000A80215C0893099F4828193818115924087
:1036000081F484819581892B61F481E080931D028E
:103610008681978190931C0280931B0202C080E0F8
:1036200008958FEF089520911B0230911C02232BE7
:1036300071F020911D02213051F4FC0180818093B2
:10364000A90210921C0210921B0281E008958FEFD4
:1036500008950895FC0193819330D9F068F4913076
:1036600081F0923009F060C084E493E09093DF022F
:103670008093DE028BE30895913281F19232F1F171
:1036800053C08FE793E09093DF028093DE0282E1E4
:1036900008958281813061F040F0823089F083307A
:1036A00009F042C081E993E013C08DEB93E010C0B4
:1036B00085EA93E09093DF028093DE0286E108952D
:1036C00087E993E09093DF028093DE028CE0089517
:1036D0009093DF028093DE0284E008958281882344
:1036E00029F0813009F58FE693E002C086E593E08A
:1036F0009093DF028093DE0289E0089584819581B2
:10370000009751F0019781F481EC93E09093DF02F0
:103710008093DE0281E8089582E494E09093DF02D2
:103720008093DE0280E4089580E008951F93CF9394
:10373000DF93162FEA01288124FF05C0398128E88C
:103740002327298302C02AE52883FC019E012E5FDE
:103750003F4FD901912F81918D939150E1F7612FC6
:10376000C9010E949F021C5F1883DF91CF911F91B6
:1037700008954EEC52E00C94961B4AEF52E00C94E4
:10378000961BCF93DF936091E002635067FD91C079
:103790008091DC02CCE0D0E0C81BD109CC51DD4FD8
:1037A0008091DB02803120F4CE010E94291B7FC072
:1037B0008D3209F06CC0683009F079C083EC8093D9
:1037C000C3028AE5809315011092AA02888180764F
:1037D00021F0CE010E94DA1A47C09A811092CC02E1
:1037E0008981811106C01092CD022CEC32E082E07A
:1037F00036C0853019F49093E1022EC08630A1F4D2
:103800008B81813041F0823031F0833021F0813280
:1038100011F0823221F4CE010E942A1B01C080E007
:1038200090E49093AA0220C0883079F0893019F48E
:103830009093E30211C08A3059F08B3069F48BE425
:103840008093CF028093FB0207C023EE32E002C0D8
:103850002CEC32E081E003C02CEC32E080E03093CD
:10386000DF022093DE0209C08F3F39F4988197FD73
:103870008E8190E89093AA0207C09F81911104C0A5
:103880009E81981708F4892F8093140110C08091AD
:10389000AA0287FF0CC0CE010E94131B8F3F21F4A8
:1038A0008EE18093150103C08111109214011092D2
:1038B000E0028091150184FF47C0809114018F3F81
:1038C00009F442C0C82F893008F0C8E08C1B8093EF
:1038D00014019091C30288E889278093C302CC2306
:1038E00031F14091DE025091DF028091AA0286FF01
:1038F0000AC0A4ECB2E0FA019C2F84918D9331961A
:103900009150D9F708C0DA01E4ECF2E09C2F8D91D8
:1039100081939150E1F72FEF2C0F30E02F5F3F4F55
:10392000CA01820F931F9093DF028093DE026C2FF7
:1039300084EC92E00E949F02CC5FCC3019F08FEFB4
:1039400080931401C093150184E199B19C7031F406
:103950008150D9F71092E1021092DA02DF91CF91F3
:103960000895E9E6F0E0808188608083E99AAEEC12
:10397000B2E08BE411968C931197EAEFF2E0818329
:103980008AE58C938083089597FB072E16F40094A4
:1039900007D077FD09D00E94DE1C07FC05D03EF45D
:1039A000909581959F4F0895709561957F4F0895EB
:1039B000EE0FFF1F0590F491E02D0994AA1BBB1B8D
:1039C00051E107C0AA1FBB1FA617B70710F0A61B1F
:1039D000B70B881F991F5A95A9F780959095BC0140
:1039E000CD010895F999FECF92BD81BDF89A99272E
:1039F00080B50895A8E1B0E042E050E00C94261DA7
:103A0000262FF999FECF92BD81BDF89A019700B497
:103A1000021639F01FBA20BD0FB6F894FA9AF99A37
:103A20000FBE08950396272F0E94011D0E94001DBE
:103A3000252F0E94011D242F0C94011D0196272F74
:103A40000E94011D0C94001DDC01CB01FC01F999C1
:103A5000FECF06C0F2BDE1BDF89A319600B40D92DA
:0C3A600041505040B8F70895F894FFCF93
:103A6C00FF012808641E140A321E341AB81A681A88
:103A7C00641A601AFF5AE200E900EA00B500B600C9
:103A8C00B700CD008301CC008A0192019401210280
:103A9C00230224022502260227022A02B300B400C4
:103AAC006F0070008182833097969532316061622D
:103ABC0063919034353394E200E900EA00B500B626
:103ACC0000B700CD008301CC008A01920194012142
:103ADC0002230224022502260227022A02B300B482
:083AEC00006F0070008182836D
:00000001FF
